:1000000071C0000086C0000084C0000082C00000F3
:10001000D0C000007EC000007CC000007AC000009C
:1000200078C0000076C0000074C0000072C00000FC
:1000300070C000006EC000006CC000006AC000000C
:1000400068C0000066C0000064C0000062C000001C
:1000500060C000005EC000005CC000005AC000002C
:1000600058C0000056C0000054C0000052C000003C
:1000700050C000004EC000004CC000004AC000004C
:1000800048C0000046C0000044C0000042C000005C
:1000900040C000003EC000003CC000003AC000006C
:1000A00038C0000036C0000034C0000032C000007C
:1000B00030C000002EC000002CC000002AC000008C
:1000C00028C0000026C0000024C0000022C000009C
:1000D00020C000001EC000001CC000001AC00000AC
:1000E00018C0000011241FBECFEFD1E2DEBFCDBF8C
:1000F00000E00CBF12E0A0E0B2E0E8E1F2E000E0D6
:100100000BBF02C007900D92A231B107D9F723D0DF
:1001100081C076CF84B3846084BB89EF90E001977F
:10012000F1F700C0000084B38B7F84BB89EF90E0BF
:100130000197F1F700C00000089584B3816084BB8B
:1001400084B38D7F84BB089584B38E7F84BB84B3D6
:100150008D7F84BB089587B1886087B98AB18E7F0F
:100160008AB9E9E6F0E08081886080838DB3886099
:100170008DBB78948FEF83BB80930101E5DFCADFED
:100180008FE080930201C6DFF9CFCF93DF93C0E009
:10019000D0E009C0D2DFFE01E050FE4F80818093A5
:1001A0000201B8DF2196C231D105A4F3DF91CF91CE
:1001B00008951F920F920FB60F9211240BB60F9253
:1001C0002F933F934F935F936F937F938F939F935F
:1001D000AF93BF93EF93FF9398B188E0892788B9D5
:1001E00083ED90E30197F1F700C00000CEDFFF91AF
:1001F000EF91BF91AF919F918F917F916F915F919F
:100200004F913F912F910F900BBE0F900FBE0F900B
:080210001F901895F894FFCF30
:1002180048656C6C6F206E657720746F75726973B2
:02022800740060
:00000001FF
