:1000000071C0000086C0000084C0000082C00000F3
:1000100081C000007EC000007CC000007AC00000EB
:1000200078C0000076C0000074C0000072C00000FC
:1000300070C000006EC000006CC000006AC000000C
:1000400068C0000066C0000064C0000062C000001C
:1000500060C000005EC000005CC000005AC000002C
:1000600058C0000056C0000054C0000052C000003C
:1000700050C000004EC000004CC000004AC000004C
:1000800048C0000046C0000044C0000042C000005C
:1000900040C000003EC000003CC000003AC000006C
:1000A00038C0000036C0000034C0000032C000007C
:1000B00030C000002EC000002CC000002AC000008C
:1000C00028C0000026C0000024C0000022C000009C
:1000D00020C000001EC000001CC000001AC00000AC
:1000E00018C0000011241FBECFEFD1E2DEBFCDBF8C
:1000F00000E00CBF12E0A0E0B2E0E4EEF1E000E0CE
:100100000BBF02C007900D92A231B107D9F749D0B9
:1001100067C076CF1F920F920FB60F9211248F9364
:100120009F9398B188E0892788B99F918F910F900C
:100130000FBE0F901F90189584B3846084BB89EF25
:1001400090E00197F1F700C0000084B38B7F84BB7F
:1001500089EF90E00197F1F700C00000089584B3A3
:10016000816084BB84B38D7F84BB0895CF93DF937C
:10017000C0E0D0E009C0F3DFFE01E050FE4F808117
:1001800080930201D9DF2196C131D105A4F3DF911B
:10019000CF91089584B38E7F84BB84B38D7F84BB5D
:1001A000089587B1886087B98AB18E7F8AB9E9E6F8
:1001B000F0E08081886080838DB388608DBB789407
:1001C0008FEF83BB80930101E5DFB6DFC2E0D1E0B2
:1001D0008FE08883B1DF8FE38883AEDFC7DFF4CFA2
:0401E000F894FFCFC1
:1001E40048656C6C6F206E657720746F75726973E7
:0201F400740095
:00000001FF
