:1000000071C000008EC000008CC00000F8C100006C
:10001000CAC1000086C0000084C0000082C0000089
:1000200080C000007EC000007CC000007AC00000DC
:1000300078C0000076C0000074C0000072C00000EC
:1000400070C000006EC000006CC000006AC00000FC
:1000500068C0000066C0000064C0000062C000000C
:1000600060C000005EC000005CC000005AC000001C
:1000700058C0000056C0000054C0000052C000002C
:1000800050C000004EC000004CC000004AC000003C
:1000900048C0000046C0000044C0000042C000004C
:1000A00040C000003EC000003CC000003AC000005C
:1000B00038C0000036C0000034C0000032C000006C
:1000C00030C000002EC000002CC000002AC000007C
:1000D00028C0000026C0000024C0000022C000008C
:1000E00020C0000011241FBECFEFD1E2DEBFCDBF84
:1000F00000E00CBF12E0A0E0B2E0E0E5F4E000E0D8
:100100000BBF02C007900D92AC32B107D9F722E0C5
:10011000ACE2B2E001C01D92AC32B207E1F7B4D05C
:1001200095C16ECF82B18F7E82B9039B1DC0029BA9
:100130001EC0019B1FC0009B20C082B18F7D82B971
:10014000039B1EC0029B1FC0019B20C0009B21C0BF
:1001500082B18F7B82B9039B1FC0029B20C0019B91
:1001600021C0009B22C0089581E090E0089584E0C2
:1001700090E0089587E090E0089588EC90E008957D
:1001800082E090E0089585E090E0089588E090E0B6
:10019000089580E090E0089583E090E0089586E07F
:1001A00090E0089589E090E0089584E690E0089555
:1001B00084B3846084BB89EF90E00197F1F700C0BD
:1001C000000084B38B7F84BB89EF90E00197F1F747
:1001D00000C00000089584B3816084BB84B38D7F28
:1001E00084BB089584B38E7F84BB84B38D7F84BB2E
:1001F0000895CF93DF93C0E0D0E009C0ECDFFE01AB
:10020000E050FE4F808180930201D2DF2196C631FB
:10021000D105A4F387DFDF91CF910895EADF2FEDB9
:1002200083E994E0215080409040E1F700C0000055
:100230002FED83E994E0215080409040E1F700C029
:1002400000002FED83E994E0215080409040E1F7D9
:1002500000C000000895E5E0F1E082E080832FE334
:100260008DE093E0215080409040E1F700C0000015
:1002700081E080832FE38DE093E021508040904027
:10028000E1F700C00000089584B1816084B98AB1AB
:10029000877F8AB98AB18B7F8AB9E9E6F0E08081ED
:1002A000886080838DB388608DBB8081846080830B
:1002B0008DB384608DBB78948FEF83BB80930101F5
:1002C0008093040180EF81B981EF84B98BDF70DF07
:1002D0008FE0809302016CDF85B18F7D85B91C9919
:1002E00003C081E085B90EC01B9903C081E085B9C8
:1002F00009C01A9903C081E085B904C0199902C0E8
:1003000081E085B985B18F7B85B91C9903C081E0F7
:1003100085B90EC01B9903C081E085B909C01A993F
:1003200003C081E085B904C0199902C081E085B994
:1003300085B18F7785B91C9903C081E085B90EC05E
:100340001B9903C081E085B909C01A9903C081E0F7
:1003500085B904C0199902C081E085B97CDFB6CFA8
:1003600081E08093020124CF0895CF93DF93C0E012
:10037000D0E009C030DFFE01E85EFD4F8081809350
:10038000020116DF2196C131D105A4F32FE986E8D9
:1003900091E0215080409040E1F700C00000E0DF94
:1003A000DF91CF9108951F920F920FB60F921124F3
:1003B0000BB60F922F933F934F935F936F937F935F
:1003C0008F939F93AF93BF93EF93FF9395B181E08A
:1003D000892785B9EDDEC9DFFF91EF91BF91AF911C
:1003E0009F918F917F916F915F914F913F912F914D
:1003F0000F900BBE0F900FBE0F901F9018951F927D
:100400000F920FB60F9211240BB60F922F933F93BA
:100410004F935F936F937F938F939F93AF93BF930C
:10042000EF93FF93FBDEFF91EF91BF91AF919F910F
:100430008F917F916F915F914F913F912F910F908D
:100440000BBE0F900FBE0F901F901895F894FFCF22
:10045000456E74657220796F7572206E756D626578
:100460007220706C6174650048656C6C6F206E65FD
:0C0470007720746F7572697374210000AE
:00000001FF
