:1000000071C0000086C0000084C0000082C00000F3
:1000100083C100007EC000007CC000007AC00000E8
:1000200078C0000076C0000074C0000072C00000FC
:1000300070C000006EC000006CC000006AC000000C
:1000400068C0000066C0000064C0000062C000001C
:1000500060C000005EC000005CC000005AC000002C
:1000600058C0000056C0000054C0000052C000003C
:1000700050C000004EC000004CC000004AC000004C
:1000800048C0000046C0000044C0000042C000005C
:1000900040C000003EC000003CC000003AC000006C
:1000A00038C0000036C0000034C0000032C000007C
:1000B00030C000002EC000002CC000002AC000008C
:1000C00028C0000026C0000024C0000022C000009C
:1000D00020C000001EC000001CC000001AC00000AC
:1000E00018C0000011241FBECFEFD1E2DEBFCDBF8C
:1000F00000E00CBF12E0A0E0B2E0E6E7F3E000E0D1
:100100000BBF02C007900D92A231B107D9F73CD0C6
:1001100030C176CF84B3846084BB89EF90E00197CF
:10012000F1F700C0000084B38B7F84BB89EF90E0BF
:100130000197F1F700C00000089584B3816084BB8B
:1001400084B38D7F84BB089584B38E7F84BB84B3D6
:100150008D7F84BB0895E5E0F1E082E080832FE3AA
:100160008DE093E0215080409040E1F700C0000016
:1001700081E080832FE38DE093E021508040904028
:10018000E1F700C00000089584B1816084B98AB1AC
:100190008E7F8AB9E9E6F0E08081886080838DB344
:1001A00088608DBB78948FEF83BB8093010180932F
:1001B000040180EF81B981EF84B9C6DFABDF8FE046
:1001C00080930201A7DF82B18F7E82B9039903C0B9
:1001D00081E085B90EC0029903C081E085B909C0EC
:1001E000019903C081E085B904C0009902C081E093
:1001F00085B982B18F7D82B9039903C081E085B949
:100200000EC0029903C081E085B909C0019903C0FD
:1002100081E085B904C0009902C081E085B982B14E
:100220008F7B82B9039903C081E085B90EC0029922
:1002300003C081E085B909C0019903C081E085B997
:1002400004C0009902C081E085B985B18F7D85B970
:100250001C9903C081E085B90EC01B9903C081E0E1
:1002600085B909C01A9903C081E085B904C01999FC
:1002700002C081E085B985B18F7B85B91C9903C027
:1002800081E085B90EC01B9903C081E085B909C022
:100290001A9903C081E085B904C0199902C081E0B0
:1002A00085B985B18F7785B91C9903C081E085B97F
:1002B0000EC01B9903C081E085B909C01A9903C01B
:1002C00081E085B904C0199902C081E085B943DF96
:1002D00074CF81E0809302011DCF0895CF93DF9307
:1002E000C0E0D0E009C029DFFE01E050FE4F808170
:1002F000809302010FDF2196C231D105A4F32FEDC7
:1003000083E994E0215080409040E1F700C0000074
:10031000E0DFDF91CF9108951F920F920FB60F92F9
:1003200011240BB60F922F933F934F935F936F93CC
:100330007F938F939F93AF93BF93EF93FF9383ED3F
:1003400090E30197F1F700C00000C8DFFF91EF9143
:10035000BF91AF919F918F917F916F915F914F91DD
:100360003F912F910F900BBE0F900FBE0F901F90DB
:060370001895F894FFCF80
:1003760048656C6C6F206E657720746F7572697353
:02038600740001
:00000001FF
