S00F000050726F6A6563742E737265633E
S113000071C0000086C0000084C0000061C200000E
S11300102BC200007EC000007CC000007AC000003B
S113002078C0000076C0000074C0000072C00000F8
S113003070C000006EC000006CC000006AC0000008
S113004068C0000066C0000064C0000062C0000018
S113005060C000005EC000005CC000005AC0000028
S113006058C0000056C0000054C0000052C0000038
S113007050C000004EC000004CC000004AC0000048
S113008048C0000046C0000044C0000042C0000058
S113009040C000003EC000003CC000003AC0000068
S11300A038C0000036C0000034C0000032C0000078
S11300B030C000002EC000002CC000002AC0000088
S11300C028C0000026C0000024C0000022C0000098
S11300D020C000001EC000001CC000001AC00000A8
S11300E018C0000011241FBECFEFD1E2DEBFCDBF88
S11300F000E00CBF12E0A0E0B2E0E0E0FBE000E0D2
S11301000BBF02C007900D92A435B107D9F75FD198
S1130110F5C476CF87EF82B980B1806180B9039B43
S11301201FC0029B20C0019B21C0009B22C082B142
S11301308F7D82B9039B20C0029B21C0019B22C0FA
S1130140009B23C082B18F7B82B9039B21C0029B99
S113015022C0019B23C0009924C084E690E0089546
S113016081E090E0089584E090E0089587E090E0D5
S1130170089588EC90E0089582E090E0089585E089
S113018090E0089588E090E0089580E090E008957C
S113019083E090E0089586E090E0089589E090E09F
S11301A0089580ED97E0089584B3846084BB83ED63
S11301B090E30197F1F700C0000084B38B7F84BB08
S11301C083ED90E30197F1F700C00000089584B334
S11301D0816084BB84B38D7F84BB089584B38E7F98
S11301E084BB84B38D7F84BB08958093020184B360
S11301F08E7F84BB84B38D7F84BBD6CF089588E380
S113020090E0F3DF8CE090E0F0DF86E090E0EDDF5B
S113021081E090E0EACF08958093020184B3816085
S113022084BB84B38D7F84BBBFCF0895EF92FF92CC
S11302300F931F93CF93DF937C01FC010190002067
S1130240E9F731978F01081B190BC0E0D0E007C014
S1130250F701EC0FFD1F808190E0DEDF2196C017CF
S1130260D107B4F3DF91CF911F910F91FF90EF90DD
S113027008950F931F93CF93DF931F92CDB7DEB7EB
S1130280BEDF81E0B2DF80E8B0DF83E192E0CEDF61
S11302908BDF80ECAADF80E292E0C8DF3BDF01C0A5
S11302A039DF803D27E09207D9F39F938F938FE244
S11302B092E09F938F938E010F5F1F4F1F930F93B5
S11302C042D18DEC92DFC801B1DF6EDF0F900F9049
S11302D00F900F900F900F900F90DF91CF911F917F
S11302E00F9108950F931F93CF93DF931F92CDB770
S11302F0DEB784E97ADF82E392E098DF0BDF01C0A6
S113030009DF883C9105E1F39F938F938FE292E09C
S11303109F938F938E010F5F1F4F1F930F9313D1E2
S113032084EA63DFC80182DF0F900F900F900F9073
S11303300F900F900F90DF91CF911F910F9108951F
S11303400F931F93CF93DF931F92CDB7DEB784ED46
S11303504CDF83E492E06ADFDDDE01C0DBDE883C53
S11303609105E1F38E010F5F1F4F1F930F938FE2EF
S113037092E09F938F931F930F93E5D084EE35DF24
S1130380C80154DF0F900F900F900F900F900F90B3
S11303900F90DF91CF911F910F910895E5E0F1E067
S11303A082E080832FE38DE093E0215080409040F1
S11303B0E1F700C0000081E080832FE38DE093E04B
S11303C0215080409040E1F700C00000089584B1BE
S11303D0816084B98AB1877F8AB98AB18B7F8AB9EF
S11303E0E9E6F0E08081886080838DB388608DBB0E
S11303F08081846080838DB384608DBB78948FEF1B
S113040083BB809301018093040180EF81B981EF64
S113041084B9C4DFFECF81E080930201C5CE089584
S1130420CF93DF93DBDEC0DE8FE080930201BCDE7E
S1130430C0E0D0E009C0CBDEFE01E050FE4F808179
S113044080930201B1DE2196C231D105A4F32FE9D4
S113045086E891E0215080409040E1F700C0000020
S1130460DADFDF91CF9108951F920F920FB60F92AA
S113047011240BB60F922F933F934F935F936F9377
S11304807F938F939F93AF93BF93EF93FF9395B114
S113049081E0892785B92FE38DE093E021508040E6
S11304A09040E1F700C00000BBDFFF91EF91BF91E6
S11304B0AF919F918F917F916F915F914F913F91F8
S11304C02F910F900BBE0F900FBE0F901F90189599
S11304D01F920F920FB60F9211240BB60F922F9307
S11304E03F934F935F936F937F938F939F93AF93B8
S11304F0BF93EF93FF93BDDE2FE38DE093E0215094
S113050080409040E1F700C00000ECDE2FE38DE076
S113051093E0215080409040E1F700C0000010DFDC
S1130520FF91EF91BF91AF919F918F917F916F91C7
S11305305F914F913F912F910F900BBE0F900FBE83
S11305400F901F9018950F931F93CF93DF93CDB700
S1130550DEB72E970FB6F894DEBF0FBECDBF0E895F
S11305601F8986E08C831A8309838FEF9FE79E831C
S11305708D83AE01465E5F4F688D798DCE01019605
S113058010D0EF81F885E00FF11F10822E960FB680
S1130590F894DEBF0FBECDBFDF91CF911F910F91B5
S11305A008952F923F924F925F926F927F928F9213
S11305B09F92AF92BF92CF92DF92EF92FF920F93EE
S11305C01F93CF93DF93CDB7DEB72B970FB6F89475
S11305D0DEBF0FBECDBF6C017B018A01FC01178217
S11305E01682838181FFBFC1CE0101963C01F601D1
S11305F09381F70193FD859193FF81917F01882376
S113060009F4ADC1853239F493FD859193FF81914D
S11306107F01853221F4B60190E0D6D1E8CF912C48
S1130620212C312CFFE1F315D8F08B3279F038F41A
S1130630803279F08332A1F4232D20611DC08D32E4
S113064061F0803369F4232D216016C0832D82600C
S1130650382EE32DE4603E2E2AC0F32DF8601DC031
S113066037FC2DC020ED280F2A3040F08E32B9F42B
S113067036FC75C1232D2064322E19C036FE06C007
S11306808AE0989E200D1124922E11C0EAE02E9E3D
S1130690200D1124222EF32DF0623F2E08C08C363B
S11306A021F4832D8068382E02C0883641F4F70186
S11306B093FD859193FF81917F018111B3CF982F91
S11306C09F7D9554933028F40C5F1F4F9FE39983CB
S11306D00DC0833631F0833771F0833509F055C08E
S11306E020C0F801808189830E5F1F4F8824839482
S11306F0912C530112C02801F2E04F0E511CF80155
S1130700A080B18036FE03C0692D70E002C06FEF97
S11307107FEFC5014ED14C018201F32DFF773F2EAF
S113072015C0280122E0420E511CF801A080B180BE
S113073036FE03C0692D70E002C06FEF7FEFC50184
S11307402DD14C01F32DF0683F2E820133FC19C0EA
S1130750822D90E088169906A0F4B60180E290E01C
S113076033D12A94F5CFF50137FC859137FE819179
S11307705F01B60190E028D121102A9421E0821A69
S113078091088114910479F7E1C0843611F0893617
S113079039F5F80137FE07C0608171818281938148
S11307A00C5F1F4F08C060817181072E000C880BFD
S11307B0990B0E5F1F4FF32DFF763F2E97FF09C055
S11307C090958095709561957F4F8F4F9F4FF068FE
S11307D03F2E2AE030E0A30133D1882E861844C08E
S11307E0853731F4232D2F7EB22E2AE030E025C048
S11307F0932D997FB92E8F36C1F018F4883579F08E
S1130800AEC0803719F0883721F0A9C0E92FE06124
S1130810BE2EB4FE0DC0FB2DF460BF2E09C034FE05
S11308200AC0292F2660B22E06C028E030E005C099
S113083020E130E002C020E132E0F801B7FE07C059
S113084060817181828193810C5F1F4F06C060813A
S1130850718180E090E00E5F1F4FA301F1D0882EDC
S11308608618FB2DFF773F2E36FE0DC0232D2E7FDD
S1130870A22E891458F434FE0BC032FC09C0832D17
S11308808E7EA82E05C0B82CA32C03C0B82C01C0A2
S1130890B92CA4FE0FC0FE01E80DF11D8081803348
S11308A021F49A2D997EA92E09C0A2FE06C0B39404
S11308B0B39404C08A2D867809F0B394A3FC10C0C5
S11308C0A0FE06C0B21480F4280C922C9B180DC014
S11308D0B21458F4B60180E290E076D0B394F8CF25
S11308E0B21418F42B1802C0982C212CA4FE0FC0AB
S11308F0B60180E390E068D0A2FE16C0A1FC03C05C
S113090088E790E002C088E590E0B6010CC08A2D2B
S1130910867851F0A1FE02C08BE201C080E2A7FC00
S11309208DE2B60190E050D0891430F4B60180E332
S113093090E04AD09A94F8CF8A94F301E80DF11D1F
S11309408081B60190E040D08110F6CF222009F4D6
S11309504ECEB60180E290E037D02A94F7CFF6016C
S11309608681978102C08FEF9FEF2B960FB6F89484
S1130970DEBF0FBECDBFDF91CF911F910F91FF90CE
S1130980EF90DF90CF90BF90AF909F908F907F902B
S11309906F905F904F903F902F900895FC010590C9
S11309A0615070400110D8F7809590958E0F9F1F6D
S11309B00895FC016150704001900110D8F78095B2
S11309C090958E0F9F1F08950F931F93CF93DF93DE
S11309D0FB01238121FD03C08FEF9FEF2CC022FF79
S11309E016C046815781248135814217530744F448
S11309F0A081B1819D012F5F3F4F318320838C9370
S1130A00268137812F5F3F4F3783268314C08B01A4
S1130A10EC01FB010084F185E02D1995892BE1F6A9
S1130A20D80116968D919C911797019617969C93D1
S1130A308E931697CE01DF91CF911F910F91089558
S1130A40FA01AA27283051F1203181F1E8946F93FB
S1130A506E7F6E5F7F4F8F4F9F4FAF4FB1E03ED0A1
S1130A60B4E03CD0670F781F891F9A1FA11D680F3F
S1130A70791F8A1F911DA11D6A0F711D811D911D72
S1130A80A11D20D009F468943F912AE0269F1124E7
S1130A903019305D3193DEF6CF010895462F47704B
S1130AA0405D4193B3E00FD0C9F7F6CF462F4F70A6
S1130AB0405D4A3318F0495D31FD4052419302D004
S1130AC0A9F7EACFB4E0A6959795879577956795AA
S1130AD0BA95C9F700976105710508959B01AC01AA
S1130AE00A2E06945795479537952795BA95C9F7D1
S1130AF0620F731F841F951FA01D0895F894FFCFE4
S1130B0048656C6C6F206E657720746F75726973BD
S1130B10742100524547495354524154494F4E00A1
S1130B204E756D62657220506C6174653A200025C3
S1130B30640031302079656172732062656C6F776F
S1130B403A200031302079656172732061626F76DA
S1070B50653A2000DE
S9030000FC
